{
  "contractName": "KordzToken",
  "abi": [
    {
      "inputs": [],
      "stateMutability": "nonpayable",
      "type": "constructor"
    },
    {
      "anonymous": false,
      "inputs": [
        {
          "indexed": true,
          "internalType": "address",
          "name": "owner",
          "type": "address"
        },
        {
          "indexed": true,
          "internalType": "address",
          "name": "approved",
          "type": "address"
        },
        {
          "indexed": true,
          "internalType": "uint256",
          "name": "tokenId",
          "type": "uint256"
        }
      ],
      "name": "Approval",
      "type": "event"
    },
    {
      "anonymous": false,
      "inputs": [
        {
          "indexed": true,
          "internalType": "address",
          "name": "owner",
          "type": "address"
        },
        {
          "indexed": true,
          "internalType": "address",
          "name": "operator",
          "type": "address"
        },
        {
          "indexed": false,
          "internalType": "bool",
          "name": "approved",
          "type": "bool"
        }
      ],
      "name": "ApprovalForAll",
      "type": "event"
    },
    {
      "anonymous": false,
      "inputs": [
        {
          "indexed": true,
          "internalType": "address",
          "name": "from",
          "type": "address"
        },
        {
          "indexed": true,
          "internalType": "address",
          "name": "to",
          "type": "address"
        },
        {
          "indexed": true,
          "internalType": "uint256",
          "name": "tokenId",
          "type": "uint256"
        }
      ],
      "name": "Transfer",
      "type": "event"
    },
    {
      "inputs": [
        {
          "internalType": "address",
          "name": "to",
          "type": "address"
        },
        {
          "internalType": "uint256",
          "name": "tokenId",
          "type": "uint256"
        }
      ],
      "name": "approve",
      "outputs": [],
      "stateMutability": "nonpayable",
      "type": "function"
    },
    {
      "inputs": [
        {
          "internalType": "address",
          "name": "owner",
          "type": "address"
        }
      ],
      "name": "balanceOf",
      "outputs": [
        {
          "internalType": "uint256",
          "name": "",
          "type": "uint256"
        }
      ],
      "stateMutability": "view",
      "type": "function",
      "constant": true
    },
    {
      "inputs": [
        {
          "internalType": "uint256",
          "name": "tokenId",
          "type": "uint256"
        }
      ],
      "name": "getApproved",
      "outputs": [
        {
          "internalType": "address",
          "name": "",
          "type": "address"
        }
      ],
      "stateMutability": "view",
      "type": "function",
      "constant": true
    },
    {
      "inputs": [
        {
          "internalType": "address",
          "name": "owner",
          "type": "address"
        },
        {
          "internalType": "address",
          "name": "operator",
          "type": "address"
        }
      ],
      "name": "isApprovedForAll",
      "outputs": [
        {
          "internalType": "bool",
          "name": "",
          "type": "bool"
        }
      ],
      "stateMutability": "view",
      "type": "function",
      "constant": true
    },
    {
      "inputs": [
        {
          "internalType": "uint256",
          "name": "",
          "type": "uint256"
        }
      ],
      "name": "items",
      "outputs": [
        {
          "internalType": "uint256",
          "name": "id",
          "type": "uint256"
        },
        {
          "internalType": "address",
          "name": "seller",
          "type": "address"
        },
        {
          "internalType": "string",
          "name": "metadataUri",
          "type": "string"
        }
      ],
      "stateMutability": "view",
      "type": "function",
      "constant": true
    },
    {
      "inputs": [],
      "name": "marketplace",
      "outputs": [
        {
          "internalType": "address",
          "name": "",
          "type": "address"
        }
      ],
      "stateMutability": "view",
      "type": "function",
      "constant": true
    },
    {
      "inputs": [],
      "name": "maxSupply",
      "outputs": [
        {
          "internalType": "uint256",
          "name": "",
          "type": "uint256"
        }
      ],
      "stateMutability": "view",
      "type": "function",
      "constant": true
    },
    {
      "inputs": [],
      "name": "name",
      "outputs": [
        {
          "internalType": "string",
          "name": "",
          "type": "string"
        }
      ],
      "stateMutability": "view",
      "type": "function",
      "constant": true
    },
    {
      "inputs": [
        {
          "internalType": "uint256",
          "name": "tokenId",
          "type": "uint256"
        }
      ],
      "name": "ownerOf",
      "outputs": [
        {
          "internalType": "address",
          "name": "",
          "type": "address"
        }
      ],
      "stateMutability": "view",
      "type": "function",
      "constant": true
    },
    {
      "inputs": [
        {
          "internalType": "address",
          "name": "from",
          "type": "address"
        },
        {
          "internalType": "address",
          "name": "to",
          "type": "address"
        },
        {
          "internalType": "uint256",
          "name": "tokenId",
          "type": "uint256"
        }
      ],
      "name": "safeTransferFrom",
      "outputs": [],
      "stateMutability": "nonpayable",
      "type": "function"
    },
    {
      "inputs": [
        {
          "internalType": "address",
          "name": "from",
          "type": "address"
        },
        {
          "internalType": "address",
          "name": "to",
          "type": "address"
        },
        {
          "internalType": "uint256",
          "name": "tokenId",
          "type": "uint256"
        },
        {
          "internalType": "bytes",
          "name": "_data",
          "type": "bytes"
        }
      ],
      "name": "safeTransferFrom",
      "outputs": [],
      "stateMutability": "nonpayable",
      "type": "function"
    },
    {
      "inputs": [
        {
          "internalType": "address",
          "name": "operator",
          "type": "address"
        },
        {
          "internalType": "bool",
          "name": "approved",
          "type": "bool"
        }
      ],
      "name": "setApprovalForAll",
      "outputs": [],
      "stateMutability": "nonpayable",
      "type": "function"
    },
    {
      "inputs": [
        {
          "internalType": "bytes4",
          "name": "interfaceId",
          "type": "bytes4"
        }
      ],
      "name": "supportsInterface",
      "outputs": [
        {
          "internalType": "bool",
          "name": "",
          "type": "bool"
        }
      ],
      "stateMutability": "view",
      "type": "function",
      "constant": true
    },
    {
      "inputs": [],
      "name": "symbol",
      "outputs": [
        {
          "internalType": "string",
          "name": "",
          "type": "string"
        }
      ],
      "stateMutability": "view",
      "type": "function",
      "constant": true
    },
    {
      "inputs": [
        {
          "internalType": "address",
          "name": "from",
          "type": "address"
        },
        {
          "internalType": "address",
          "name": "to",
          "type": "address"
        },
        {
          "internalType": "uint256",
          "name": "tokenId",
          "type": "uint256"
        }
      ],
      "name": "transferFrom",
      "outputs": [],
      "stateMutability": "nonpayable",
      "type": "function"
    },
    {
      "inputs": [
        {
          "internalType": "string",
          "name": "uri_",
          "type": "string"
        }
      ],
      "name": "mint",
      "outputs": [
        {
          "internalType": "uint256",
          "name": "",
          "type": "uint256"
        }
      ],
      "stateMutability": "nonpayable",
      "type": "function"
    },
    {
      "inputs": [
        {
          "internalType": "uint256",
          "name": "tokenId_",
          "type": "uint256"
        }
      ],
      "name": "tokenURI",
      "outputs": [
        {
          "internalType": "string",
          "name": "",
          "type": "string"
        }
      ],
      "stateMutability": "view",
      "type": "function",
      "constant": true
    },
    {
      "inputs": [
        {
          "internalType": "address",
          "name": "marketplace_",
          "type": "address"
        }
      ],
      "name": "setMarketplace",
      "outputs": [],
      "stateMutability": "nonpayable",
      "type": "function"
    }
  ],
  "bytecode": "0x60806040523480156200001157600080fd5b506040518060400160405280600a81526020017f4b6f72647a546f6b656e000000000000000000000000000000000000000000008152506040518060400160405280600581526020017f4b4f52445a000000000000000000000000000000000000000000000000000000815250816000908051906020019062000096929190620000b8565b508060019080519060200190620000af929190620000b8565b505050620001cd565b828054620000c69062000197565b90600052602060002090601f016020900481019282620000ea576000855562000136565b82601f106200010557805160ff191683800117855562000136565b8280016001018555821562000136579182015b828111156200013557825182559160200191906001019062000118565b5b50905062000145919062000149565b5090565b5b80821115620001645760008160009055506001016200014a565b5090565b7f4e487b7100000000000000000000000000000000000000000000000000000000600052602260045260246000fd5b60006002820490506001821680620001b057607f821691505b60208210811415620001c757620001c662000168565b5b50919050565b6129b180620001dd6000396000f3fe608060405234801561001057600080fd5b50600436106101165760003560e01c806395d89b41116100a2578063bfb231d211610071578063bfb231d2146102dd578063c87b56dd1461030f578063d5abeb011461033f578063d85d3d271461035d578063e985e9c51461038d57610116565b806395d89b4114610269578063a22cb46514610287578063abc8c7af146102a3578063b88d4fde146102c157610116565b806323b872dd116100e957806323b872dd146101b557806342842e0e146101d15780636352211e146101ed57806370a082311461021d57806373ad6c2d1461024d57610116565b806301ffc9a71461011b57806306fdde031461014b578063081812fc14610169578063095ea7b314610199575b600080fd5b6101356004803603810190610130919061192c565b6103bd565b6040516101429190611974565b60405180910390f35b61015361049f565b6040516101609190611a28565b60405180910390f35b610183600480360381019061017e9190611a80565b610531565b6040516101909190611aee565b60405180910390f35b6101b360048036038101906101ae9190611b35565b6105b6565b005b6101cf60048036038101906101ca9190611b75565b6106ce565b005b6101eb60048036038101906101e69190611b75565b61072e565b005b61020760048036038101906102029190611a80565b61074e565b6040516102149190611aee565b60405180910390f35b61023760048036038101906102329190611bc8565b610800565b6040516102449190611c04565b60405180910390f35b61026760048036038101906102629190611bc8565b6108b8565b005b6102716108fc565b60405161027e9190611a28565b60405180910390f35b6102a1600480360381019061029c9190611c4b565b61098e565b005b6102ab610b0f565b6040516102b89190611aee565b60405180910390f35b6102db60048036038101906102d69190611dc0565b610b35565b005b6102f760048036038101906102f29190611a80565b610b97565b60405161030693929190611e43565b60405180910390f35b61032960048036038101906103249190611a80565b610c69565b6040516103369190611a28565b60405180910390f35b610347610d59565b6040516103549190611c04565b60405180910390f35b61037760048036038101906103729190611f22565b610d5f565b6040516103849190611c04565b60405180910390f35b6103a760048036038101906103a29190611f6b565b610e75565b6040516103b49190611974565b60405180910390f35b60007f80ac58cd000000000000000000000000000000000000000000000000000000007bffffffffffffffffffffffffffffffffffffffffffffffffffffffff1916827bffffffffffffffffffffffffffffffffffffffffffffffffffffffff1916148061048857507f5b5e139f000000000000000000000000000000000000000000000000000000007bffffffffffffffffffffffffffffffffffffffffffffffffffffffff1916827bffffffffffffffffffffffffffffffffffffffffffffffffffffffff1916145b80610498575061049782610f09565b5b9050919050565b6060600080546104ae90611fda565b80601f01602080910402602001604051908101604052809291908181526020018280546104da90611fda565b80156105275780601f106104fc57610100808354040283529160200191610527565b820191906000526020600020905b81548152906001019060200180831161050a57829003601f168201915b5050505050905090565b600061053c82610f73565b61057b576040517f08c379a00000000000000000000000000000000000000000000000000000000081526004016105729061207e565b60405180910390fd5b6004600083815260200190815260200160002060009054906101000a900473ffffffffffffffffffffffffffffffffffffffff169050919050565b60006105c18261074e565b90508073ffffffffffffffffffffffffffffffffffffffff168373ffffffffffffffffffffffffffffffffffffffff161415610632576040517f08c379a000000000000000000000000000000000000000000000000000000000815260040161062990612110565b60405180910390fd5b8073ffffffffffffffffffffffffffffffffffffffff16610651610fdf565b73ffffffffffffffffffffffffffffffffffffffff161480610680575061067f8161067a610fdf565b610e75565b5b6106bf576040517f08c379a00000000000000000000000000000000000000000000000000000000081526004016106b6906121a2565b60405180910390fd5b6106c98383610fe7565b505050565b6106df6106d9610fdf565b826110a0565b61071e576040517f08c379a000000000000000000000000000000000000000000000000000000000815260040161071590612234565b60405180910390fd5b61072983838361117e565b505050565b61074983838360405180602001604052806000815250610b35565b505050565b6000806002600084815260200190815260200160002060009054906101000a900473ffffffffffffffffffffffffffffffffffffffff169050600073ffffffffffffffffffffffffffffffffffffffff168173ffffffffffffffffffffffffffffffffffffffff1614156107f7576040517f08c379a00000000000000000000000000000000000000000000000000000000081526004016107ee906122c6565b60405180910390fd5b80915050919050565b60008073ffffffffffffffffffffffffffffffffffffffff168273ffffffffffffffffffffffffffffffffffffffff161415610871576040517f08c379a000000000000000000000000000000000000000000000000000000000815260040161086890612358565b60405180910390fd5b600360008373ffffffffffffffffffffffffffffffffffffffff1673ffffffffffffffffffffffffffffffffffffffff168152602001908152602001600020549050919050565b80600660006101000a81548173ffffffffffffffffffffffffffffffffffffffff021916908373ffffffffffffffffffffffffffffffffffffffff16021790555050565b60606001805461090b90611fda565b80601f016020809104026020016040519081016040528092919081815260200182805461093790611fda565b80156109845780601f1061095957610100808354040283529160200191610984565b820191906000526020600020905b81548152906001019060200180831161096757829003601f168201915b5050505050905090565b610996610fdf565b73ffffffffffffffffffffffffffffffffffffffff168273ffffffffffffffffffffffffffffffffffffffff161415610a04576040517f08c379a00000000000000000000000000000000000000000000000000000000081526004016109fb906123c4565b60405180910390fd5b8060056000610a11610fdf565b73ffffffffffffffffffffffffffffffffffffffff1673ffffffffffffffffffffffffffffffffffffffff16815260200190815260200160002060008473ffffffffffffffffffffffffffffffffffffffff1673ffffffffffffffffffffffffffffffffffffffff16815260200190815260200160002060006101000a81548160ff0219169083151502179055508173ffffffffffffffffffffffffffffffffffffffff16610abe610fdf565b73ffffffffffffffffffffffffffffffffffffffff167f17307eab39ab6107e8899845ad3d59bd9653f200f220920489ca2b5937696c3183604051610b039190611974565b60405180910390a35050565b600660009054906101000a900473ffffffffffffffffffffffffffffffffffffffff1681565b610b46610b40610fdf565b836110a0565b610b85576040517f08c379a0000000000000000000000000000000000000000000000000000000008152600401610b7c90612234565b60405180910390fd5b610b91848484846113da565b50505050565b60086020528060005260406000206000915090508060000154908060010160009054906101000a900473ffffffffffffffffffffffffffffffffffffffff1690806002018054610be690611fda565b80601f0160208091040260200160405190810160405280929190818152602001828054610c1290611fda565b8015610c5f5780601f10610c3457610100808354040283529160200191610c5f565b820191906000526020600020905b815481529060010190602001808311610c4257829003601f168201915b5050505050905083565b6060610c7482610f73565b610cb3576040517f08c379a0000000000000000000000000000000000000000000000000000000008152600401610caa90612456565b60405180910390fd5b600860008381526020019081526020016000206002018054610cd490611fda565b80601f0160208091040260200160405190810160405280929190818152602001828054610d0090611fda565b8015610d4d5780601f10610d2257610100808354040283529160200191610d4d565b820191906000526020600020905b815481529060010190602001808311610d3057829003601f168201915b50505050509050919050565b60075481565b6000806007549050610d713382611436565b610d9d600660009054906101000a900473ffffffffffffffffffffffffffffffffffffffff16826105b6565b60405180606001604052808281526020013373ffffffffffffffffffffffffffffffffffffffff168152602001848152506008600060075481526020019081526020016000206000820151816000015560208201518160010160006101000a81548173ffffffffffffffffffffffffffffffffffffffff021916908373ffffffffffffffffffffffffffffffffffffffff1602179055506040820151816002019080519060200190610e5092919061181d565b5090505060076000815480929190610e67906124a5565b919050555080915050919050565b6000600560008473ffffffffffffffffffffffffffffffffffffffff1673ffffffffffffffffffffffffffffffffffffffff16815260200190815260200160002060008373ffffffffffffffffffffffffffffffffffffffff1673ffffffffffffffffffffffffffffffffffffffff16815260200190815260200160002060009054906101000a900460ff16905092915050565b60007f01ffc9a7000000000000000000000000000000000000000000000000000000007bffffffffffffffffffffffffffffffffffffffffffffffffffffffff1916827bffffffffffffffffffffffffffffffffffffffffffffffffffffffff1916149050919050565b60008073ffffffffffffffffffffffffffffffffffffffff166002600084815260200190815260200160002060009054906101000a900473ffffffffffffffffffffffffffffffffffffffff1673ffffffffffffffffffffffffffffffffffffffff1614159050919050565b600033905090565b816004600083815260200190815260200160002060006101000a81548173ffffffffffffffffffffffffffffffffffffffff021916908373ffffffffffffffffffffffffffffffffffffffff160217905550808273ffffffffffffffffffffffffffffffffffffffff1661105a8361074e565b73ffffffffffffffffffffffffffffffffffffffff167f8c5be1e5ebec7d5bd14f71427d1e84f3dd0314c0f7b2291e5b200ac8c7c3b92560405160405180910390a45050565b60006110ab82610f73565b6110ea576040517f08c379a00000000000000000000000000000000000000000000000000000000081526004016110e190612560565b60405180910390fd5b60006110f58361074e565b90508073ffffffffffffffffffffffffffffffffffffffff168473ffffffffffffffffffffffffffffffffffffffff16148061116457508373ffffffffffffffffffffffffffffffffffffffff1661114c84610531565b73ffffffffffffffffffffffffffffffffffffffff16145b8061117557506111748185610e75565b5b91505092915050565b8273ffffffffffffffffffffffffffffffffffffffff1661119e8261074e565b73ffffffffffffffffffffffffffffffffffffffff16146111f4576040517f08c379a00000000000000000000000000000000000000000000000000000000081526004016111eb906125f2565b60405180910390fd5b600073ffffffffffffffffffffffffffffffffffffffff168273ffffffffffffffffffffffffffffffffffffffff161415611264576040517f08c379a000000000000000000000000000000000000000000000000000000000815260040161125b90612684565b60405180910390fd5b61126f838383611454565b61127a600082610fe7565b6001600360008573ffffffffffffffffffffffffffffffffffffffff1673ffffffffffffffffffffffffffffffffffffffff16815260200190815260200160002060008282546112ca91906126a4565b925050819055506001600360008473ffffffffffffffffffffffffffffffffffffffff1673ffffffffffffffffffffffffffffffffffffffff168152602001908152602001600020600082825461132191906126d8565b92505081905550816002600083815260200190815260200160002060006101000a81548173ffffffffffffffffffffffffffffffffffffffff021916908373ffffffffffffffffffffffffffffffffffffffff160217905550808273ffffffffffffffffffffffffffffffffffffffff168473ffffffffffffffffffffffffffffffffffffffff167fddf252ad1be2c89b69c2b068fc378daa952ba7f163c4a11628f55a4df523b3ef60405160405180910390a4505050565b6113e584848461117e565b6113f184848484611459565b611430576040517f08c379a0000000000000000000000000000000000000000000000000000000008152600401611427906127a0565b60405180910390fd5b50505050565b6114508282604051806020016040528060008152506115e1565b5050565b505050565b600061147a8473ffffffffffffffffffffffffffffffffffffffff1661163c565b156115d4578373ffffffffffffffffffffffffffffffffffffffff1663150b7a026114a3610fdf565b8786866040518563ffffffff1660e01b81526004016114c59493929190612815565b6020604051808303816000875af192505050801561150157506040513d601f19601f820116820180604052508101906114fe9190612876565b60015b611584573d8060008114611531576040519150601f19603f3d011682016040523d82523d6000602084013e611536565b606091505b5060008151141561157c576040517f08c379a0000000000000000000000000000000000000000000000000000000008152600401611573906127a0565b60405180910390fd5b805181602001fd5b63150b7a0260e01b7bffffffffffffffffffffffffffffffffffffffffffffffffffffffff1916817bffffffffffffffffffffffffffffffffffffffffffffffffffffffff1916149150506115d9565b600190505b949350505050565b6115eb838361164f565b6115f86000848484611459565b611637576040517f08c379a000000000000000000000000000000000000000000000000000000000815260040161162e906127a0565b60405180910390fd5b505050565b600080823b905060008111915050919050565b600073ffffffffffffffffffffffffffffffffffffffff168273ffffffffffffffffffffffffffffffffffffffff1614156116bf576040517f08c379a00000000000000000000000000000000000000000000000000000000081526004016116b6906128ef565b60405180910390fd5b6116c881610f73565b15611708576040517f08c379a00000000000000000000000000000000000000000000000000000000081526004016116ff9061295b565b60405180910390fd5b61171460008383611454565b6001600360008473ffffffffffffffffffffffffffffffffffffffff1673ffffffffffffffffffffffffffffffffffffffff168152602001908152602001600020600082825461176491906126d8565b92505081905550816002600083815260200190815260200160002060006101000a81548173ffffffffffffffffffffffffffffffffffffffff021916908373ffffffffffffffffffffffffffffffffffffffff160217905550808273ffffffffffffffffffffffffffffffffffffffff16600073ffffffffffffffffffffffffffffffffffffffff167fddf252ad1be2c89b69c2b068fc378daa952ba7f163c4a11628f55a4df523b3ef60405160405180910390a45050565b82805461182990611fda565b90600052602060002090601f01602090048101928261184b5760008555611892565b82601f1061186457805160ff1916838001178555611892565b82800160010185558215611892579182015b82811115611891578251825591602001919060010190611876565b5b50905061189f91906118a3565b5090565b5b808211156118bc5760008160009055506001016118a4565b5090565b6000604051905090565b600080fd5b600080fd5b60007fffffffff0000000000000000000000000000000000000000000000000000000082169050919050565b611909816118d4565b811461191457600080fd5b50565b60008135905061192681611900565b92915050565b600060208284031215611942576119416118ca565b5b600061195084828501611917565b91505092915050565b60008115159050919050565b61196e81611959565b82525050565b60006020820190506119896000830184611965565b92915050565b600081519050919050565b600082825260208201905092915050565b60005b838110156119c95780820151818401526020810190506119ae565b838111156119d8576000848401525b50505050565b6000601f19601f8301169050919050565b60006119fa8261198f565b611a04818561199a565b9350611a148185602086016119ab565b611a1d816119de565b840191505092915050565b60006020820190508181036000830152611a4281846119ef565b905092915050565b6000819050919050565b611a5d81611a4a565b8114611a6857600080fd5b50565b600081359050611a7a81611a54565b92915050565b600060208284031215611a9657611a956118ca565b5b6000611aa484828501611a6b565b91505092915050565b600073ffffffffffffffffffffffffffffffffffffffff82169050919050565b6000611ad882611aad565b9050919050565b611ae881611acd565b82525050565b6000602082019050611b036000830184611adf565b92915050565b611b1281611acd565b8114611b1d57600080fd5b50565b600081359050611b2f81611b09565b92915050565b60008060408385031215611b4c57611b4b6118ca565b5b6000611b5a85828601611b20565b9250506020611b6b85828601611a6b565b9150509250929050565b600080600060608486031215611b8e57611b8d6118ca565b5b6000611b9c86828701611b20565b9350506020611bad86828701611b20565b9250506040611bbe86828701611a6b565b9150509250925092565b600060208284031215611bde57611bdd6118ca565b5b6000611bec84828501611b20565b91505092915050565b611bfe81611a4a565b82525050565b6000602082019050611c196000830184611bf5565b92915050565b611c2881611959565b8114611c3357600080fd5b50565b600081359050611c4581611c1f565b92915050565b60008060408385031215611c6257611c616118ca565b5b6000611c7085828601611b20565b9250506020611c8185828601611c36565b9150509250929050565b600080fd5b600080fd5b7f4e487b7100000000000000000000000000000000000000000000000000000000600052604160045260246000fd5b611ccd826119de565b810181811067ffffffffffffffff82111715611cec57611ceb611c95565b5b80604052505050565b6000611cff6118c0565b9050611d0b8282611cc4565b919050565b600067ffffffffffffffff821115611d2b57611d2a611c95565b5b611d34826119de565b9050602081019050919050565b82818337600083830152505050565b6000611d63611d5e84611d10565b611cf5565b905082815260208101848484011115611d7f57611d7e611c90565b5b611d8a848285611d41565b509392505050565b600082601f830112611da757611da6611c8b565b5b8135611db7848260208601611d50565b91505092915050565b60008060008060808587031215611dda57611dd96118ca565b5b6000611de887828801611b20565b9450506020611df987828801611b20565b9350506040611e0a87828801611a6b565b925050606085013567ffffffffffffffff811115611e2b57611e2a6118cf565b5b611e3787828801611d92565b91505092959194509250565b6000606082019050611e586000830186611bf5565b611e656020830185611adf565b8181036040830152611e7781846119ef565b9050949350505050565b600067ffffffffffffffff821115611e9c57611e9b611c95565b5b611ea5826119de565b9050602081019050919050565b6000611ec5611ec084611e81565b611cf5565b905082815260208101848484011115611ee157611ee0611c90565b5b611eec848285611d41565b509392505050565b600082601f830112611f0957611f08611c8b565b5b8135611f19848260208601611eb2565b91505092915050565b600060208284031215611f3857611f376118ca565b5b600082013567ffffffffffffffff811115611f5657611f556118cf565b5b611f6284828501611ef4565b91505092915050565b60008060408385031215611f8257611f816118ca565b5b6000611f9085828601611b20565b9250506020611fa185828601611b20565b9150509250929050565b7f4e487b7100000000000000000000000000000000000000000000000000000000600052602260045260246000fd5b60006002820490506001821680611ff257607f821691505b6020821081141561200657612005611fab565b5b50919050565b7f4552433732313a20617070726f76656420717565727920666f72206e6f6e657860008201527f697374656e7420746f6b656e0000000000000000000000000000000000000000602082015250565b6000612068602c8361199a565b91506120738261200c565b604082019050919050565b600060208201905081810360008301526120978161205b565b9050919050565b7f4552433732313a20617070726f76616c20746f2063757272656e74206f776e6560008201527f7200000000000000000000000000000000000000000000000000000000000000602082015250565b60006120fa60218361199a565b91506121058261209e565b604082019050919050565b60006020820190508181036000830152612129816120ed565b9050919050565b7f4552433732313a20617070726f76652063616c6c6572206973206e6f74206f7760008201527f6e6572206e6f7220617070726f76656420666f7220616c6c0000000000000000602082015250565b600061218c60388361199a565b915061219782612130565b604082019050919050565b600060208201905081810360008301526121bb8161217f565b9050919050565b7f4552433732313a207472616e736665722063616c6c6572206973206e6f74206f60008201527f776e6572206e6f7220617070726f766564000000000000000000000000000000602082015250565b600061221e60318361199a565b9150612229826121c2565b604082019050919050565b6000602082019050818103600083015261224d81612211565b9050919050565b7f4552433732313a206f776e657220717565727920666f72206e6f6e657869737460008201527f656e7420746f6b656e0000000000000000000000000000000000000000000000602082015250565b60006122b060298361199a565b91506122bb82612254565b604082019050919050565b600060208201905081810360008301526122df816122a3565b9050919050565b7f4552433732313a2062616c616e636520717565727920666f7220746865207a6560008201527f726f206164647265737300000000000000000000000000000000000000000000602082015250565b6000612342602a8361199a565b915061234d826122e6565b604082019050919050565b6000602082019050818103600083015261237181612335565b9050919050565b7f4552433732313a20617070726f766520746f2063616c6c657200000000000000600082015250565b60006123ae60198361199a565b91506123b982612378565b602082019050919050565b600060208201905081810360008301526123dd816123a1565b9050919050565b7f45524337323155524953746f726167653a2055524920717565727920666f722060008201527f6e6f6e6578697374656e7420746f6b656e000000000000000000000000000000602082015250565b600061244060318361199a565b915061244b826123e4565b604082019050919050565b6000602082019050818103600083015261246f81612433565b9050919050565b7f4e487b7100000000000000000000000000000000000000000000000000000000600052601160045260246000fd5b60006124b082611a4a565b91507fffffffffffffffffffffffffffffffffffffffffffffffffffffffffffffffff8214156124e3576124e2612476565b5b600182019050919050565b7f4552433732313a206f70657261746f7220717565727920666f72206e6f6e657860008201527f697374656e7420746f6b656e0000000000000000000000000000000000000000602082015250565b600061254a602c8361199a565b9150612555826124ee565b604082019050919050565b600060208201905081810360008301526125798161253d565b9050919050565b7f4552433732313a207472616e73666572206f6620746f6b656e2074686174206960008201527f73206e6f74206f776e0000000000000000000000000000000000000000000000602082015250565b60006125dc60298361199a565b91506125e782612580565b604082019050919050565b6000602082019050818103600083015261260b816125cf565b9050919050565b7f4552433732313a207472616e7366657220746f20746865207a65726f2061646460008201527f7265737300000000000000000000000000000000000000000000000000000000602082015250565b600061266e60248361199a565b915061267982612612565b604082019050919050565b6000602082019050818103600083015261269d81612661565b9050919050565b60006126af82611a4a565b91506126ba83611a4a565b9250828210156126cd576126cc612476565b5b828203905092915050565b60006126e382611a4a565b91506126ee83611a4a565b9250827fffffffffffffffffffffffffffffffffffffffffffffffffffffffffffffffff0382111561272357612722612476565b5b828201905092915050565b7f4552433732313a207472616e7366657220746f206e6f6e20455243373231526560008201527f63656976657220696d706c656d656e7465720000000000000000000000000000602082015250565b600061278a60328361199a565b91506127958261272e565b604082019050919050565b600060208201905081810360008301526127b98161277d565b9050919050565b600081519050919050565b600082825260208201905092915050565b60006127e7826127c0565b6127f181856127cb565b93506128018185602086016119ab565b61280a816119de565b840191505092915050565b600060808201905061282a6000830187611adf565b6128376020830186611adf565b6128446040830185611bf5565b818103606083015261285681846127dc565b905095945050505050565b60008151905061287081611900565b92915050565b60006020828403121561288c5761288b6118ca565b5b600061289a84828501612861565b91505092915050565b7f4552433732313a206d696e7420746f20746865207a65726f2061646472657373600082015250565b60006128d960208361199a565b91506128e4826128a3565b602082019050919050565b60006020820190508181036000830152612908816128cc565b9050919050565b7f4552433732313a20746f6b656e20616c7265616479206d696e74656400000000600082015250565b6000612945601c8361199a565b91506129508261290f565b602082019050919050565b6000602082019050818103600083015261297481612938565b905091905056fea2646970667358221220ddc88786b0685c08623b7f4e6ccc7d4c3fb11c8c4a15522e0d61566a550eea2f64736f6c634300080b0033",
  "immutableReferences": {},
  "source": "// SPDX-License-Identifier: MIT\r\npragma solidity ^0.8.7;\r\n\r\nimport \"@openzeppelin/contracts/token/ERC721/ERC721.sol\";\r\n\r\ncontract KordzToken is ERC721 {\r\n    address public marketplace;\r\n    uint256 public maxSupply;\r\n\r\n    struct Item {\r\n        uint256 id;\r\n        address seller;\r\n        string metadataUri;\r\n    }\r\n\r\n    mapping(uint256 => Item) public items;\r\n\r\n    constructor() ERC721(\"KordzToken\", \"KORDZ\") {}\r\n\r\n    function mint(string memory uri_) public returns (uint256) {\r\n        uint256 tokenId = maxSupply;\r\n        _safeMint(msg.sender, tokenId);\r\n        approve(marketplace, tokenId);\r\n        items[maxSupply] = Item(tokenId, msg.sender, uri_);\r\n        maxSupply++;\r\n        return tokenId;\r\n    }\r\n\r\n    function tokenURI(uint256 tokenId_)\r\n        public\r\n        view\r\n        override\r\n        returns (string memory)\r\n    {\r\n        require(\r\n            _exists(tokenId_),\r\n            \"ERC721URIStorage: URI query for nonexistent token\"\r\n        );\r\n        return items[tokenId_].metadataUri;\r\n    }\r\n\r\n    function setMarketplace(address marketplace_) public {\r\n        marketplace = marketplace_;\r\n    }\r\n}\r\n",
  "sourcePath": "/mnt/c/Users/CallistaChang/Documents/GitHub/metis.market/contracts/KordzToken.sol",
  "compiler": {
    "name": "solc",
    "version": "0.8.11+commit.d7f03943.Emscripten.clang"
  },
  "schemaVersion": "3.4.4",
  "updatedAt": "2022-01-02T16:33:30.750Z",
  "networkType": "ethereum",
  "devdoc": {
    "kind": "dev",
    "methods": {
      "approve(address,uint256)": {
        "details": "See {IERC721-approve}."
      },
      "balanceOf(address)": {
        "details": "See {IERC721-balanceOf}."
      },
      "getApproved(uint256)": {
        "details": "See {IERC721-getApproved}."
      },
      "isApprovedForAll(address,address)": {
        "details": "See {IERC721-isApprovedForAll}."
      },
      "name()": {
        "details": "See {IERC721Metadata-name}."
      },
      "ownerOf(uint256)": {
        "details": "See {IERC721-ownerOf}."
      },
      "safeTransferFrom(address,address,uint256)": {
        "details": "See {IERC721-safeTransferFrom}."
      },
      "safeTransferFrom(address,address,uint256,bytes)": {
        "details": "See {IERC721-safeTransferFrom}."
      },
      "setApprovalForAll(address,bool)": {
        "details": "See {IERC721-setApprovalForAll}."
      },
      "supportsInterface(bytes4)": {
        "details": "See {IERC165-supportsInterface}."
      },
      "symbol()": {
        "details": "See {IERC721Metadata-symbol}."
      },
      "transferFrom(address,address,uint256)": {
        "details": "See {IERC721-transferFrom}."
      }
    },
    "version": 1
  },
  "userdoc": {
    "kind": "user",
    "methods": {},
    "version": 1
  }
}