{
  "contractName": "KordzMarketplace",
  "abi": [
    {
      "inputs": [
        {
          "internalType": "contract KordzToken",
          "name": "_token",
          "type": "address"
        }
      ],
      "stateMutability": "nonpayable",
      "type": "constructor"
    },
    {
      "anonymous": false,
      "inputs": [
        {
          "indexed": false,
          "internalType": "uint256",
          "name": "id",
          "type": "uint256"
        },
        {
          "indexed": false,
          "internalType": "uint256",
          "name": "tokenId",
          "type": "uint256"
        },
        {
          "indexed": false,
          "internalType": "uint256",
          "name": "price",
          "type": "uint256"
        }
      ],
      "name": "ItemAddedForSale",
      "type": "event"
    },
    {
      "anonymous": false,
      "inputs": [
        {
          "indexed": false,
          "internalType": "uint256",
          "name": "id",
          "type": "uint256"
        },
        {
          "indexed": false,
          "internalType": "address",
          "name": "buyer",
          "type": "address"
        },
        {
          "indexed": false,
          "internalType": "uint256",
          "name": "price",
          "type": "uint256"
        }
      ],
      "name": "ItemSold",
      "type": "event"
    },
    {
      "inputs": [
        {
          "internalType": "uint256",
          "name": "",
          "type": "uint256"
        }
      ],
      "name": "activeItems",
      "outputs": [
        {
          "internalType": "bool",
          "name": "",
          "type": "bool"
        }
      ],
      "stateMutability": "view",
      "type": "function",
      "constant": true
    },
    {
      "inputs": [
        {
          "internalType": "uint256",
          "name": "",
          "type": "uint256"
        }
      ],
      "name": "itemsForSale",
      "outputs": [
        {
          "internalType": "uint256",
          "name": "id",
          "type": "uint256"
        },
        {
          "internalType": "uint256",
          "name": "tokenId",
          "type": "uint256"
        },
        {
          "internalType": "address payable",
          "name": "seller",
          "type": "address"
        },
        {
          "internalType": "uint256",
          "name": "price",
          "type": "uint256"
        },
        {
          "internalType": "bool",
          "name": "isSold",
          "type": "bool"
        }
      ],
      "stateMutability": "view",
      "type": "function",
      "constant": true
    },
    {
      "inputs": [
        {
          "internalType": "uint256",
          "name": "tokenId",
          "type": "uint256"
        },
        {
          "internalType": "uint256",
          "name": "price",
          "type": "uint256"
        }
      ],
      "name": "putItemForSale",
      "outputs": [
        {
          "internalType": "uint256",
          "name": "",
          "type": "uint256"
        }
      ],
      "stateMutability": "nonpayable",
      "type": "function"
    },
    {
      "inputs": [
        {
          "internalType": "uint256",
          "name": "id",
          "type": "uint256"
        }
      ],
      "name": "buyItem",
      "outputs": [],
      "stateMutability": "payable",
      "type": "function",
      "payable": true
    },
    {
      "inputs": [],
      "name": "totalItemsForSale",
      "outputs": [
        {
          "internalType": "uint256",
          "name": "",
          "type": "uint256"
        }
      ],
      "stateMutability": "view",
      "type": "function",
      "constant": true
    }
  ],
  "bytecode": "0x60806040523480156200001157600080fd5b506040516200109a3803806200109a8339818101604052810190620000379190620000fc565b806000806101000a81548173ffffffffffffffffffffffffffffffffffffffff021916908373ffffffffffffffffffffffffffffffffffffffff160217905550506200012e565b600080fd5b600073ffffffffffffffffffffffffffffffffffffffff82169050919050565b6000620000b08262000083565b9050919050565b6000620000c482620000a3565b9050919050565b620000d681620000b7565b8114620000e257600080fd5b50565b600081519050620000f681620000cb565b92915050565b6000602082840312156200011557620001146200007e565b5b60006200012584828501620000e5565b91505092915050565b610f5c806200013e6000396000f3fe60806040526004361061004a5760003560e01c8063092d0afc1461004f5780639c318c7b14610090578063e7fb74c7146100cd578063ec8120c9146100e9578063f4f3576414610114575b600080fd5b34801561005b57600080fd5b506100766004803603810190610071919061097f565b610151565b604051610087959493929190610a17565b60405180910390f35b34801561009c57600080fd5b506100b760048036038101906100b2919061097f565b6101c4565b6040516100c49190610a6a565b60405180910390f35b6100e760048036038101906100e2919061097f565b6101e4565b005b3480156100f557600080fd5b506100fe610660565b60405161010b9190610a85565b60405180910390f35b34801561012057600080fd5b5061013b60048036038101906101369190610aa0565b61066d565b6040516101489190610a85565b60405180910390f35b6001818154811061016157600080fd5b90600052602060002090600502016000915090508060000154908060010154908060020160009054906101000a900473ffffffffffffffffffffffffffffffffffffffff16908060030154908060040160009054906101000a900460ff16905085565b60026020528060005260406000206000915054906101000a900460ff1681565b600181815481106101f8576101f7610ae0565b5b906000526020600020906005020160040160009054906101000a900460ff1615610257576040517f08c379a000000000000000000000000000000000000000000000000000000000815260040161024e90610b6c565b60405180910390fd5b6001805490508110801561028f5750806001828154811061027b5761027a610ae0565b5b906000526020600020906005020160000154145b6102ce576040517f08c379a00000000000000000000000000000000000000000000000000000000081526004016102c590610bd8565b60405180910390fd5b600181815481106102e2576102e1610ae0565b5b906000526020600020906005020160030154341015610336576040517f08c379a000000000000000000000000000000000000000000000000000000000815260040161032d90610c44565b60405180910390fd5b6001818154811061034a57610349610ae0565b5b906000526020600020906005020160020160009054906101000a900473ffffffffffffffffffffffffffffffffffffffff1673ffffffffffffffffffffffffffffffffffffffff163373ffffffffffffffffffffffffffffffffffffffff1614156103ea576040517f08c379a00000000000000000000000000000000000000000000000000000000081526004016103e190610cb0565b60405180910390fd5b60018082815481106103ff576103fe610ae0565b5b906000526020600020906005020160040160006101000a81548160ff0219169083151502179055506000600260006001848154811061044157610440610ae0565b5b906000526020600020906005020160010154815260200190815260200160002060006101000a81548160ff02191690831515021790555060008054906101000a900473ffffffffffffffffffffffffffffffffffffffff1673ffffffffffffffffffffffffffffffffffffffff166342842e0e600183815481106104c8576104c7610ae0565b5b906000526020600020906005020160020160009054906101000a900473ffffffffffffffffffffffffffffffffffffffff16336001858154811061050f5761050e610ae0565b5b9060005260206000209060050201600101546040518463ffffffff1660e01b815260040161053f93929190610d50565b600060405180830381600087803b15801561055957600080fd5b505af115801561056d573d6000803e3d6000fd5b505050506001818154811061058557610584610ae0565b5b906000526020600020906005020160020160009054906101000a900473ffffffffffffffffffffffffffffffffffffffff1673ffffffffffffffffffffffffffffffffffffffff166108fc349081150290604051600060405180830381858888f193505050501580156105fc573d6000803e3d6000fd5b507fa574c741071bb18f51fa88c17aeefec514bebf670ca22a3736fba6504ecbb76381336001848154811061063457610633610ae0565b5b90600052602060002090600502016003015460405161065593929190610d87565b60405180910390a150565b6000600180549050905090565b60003373ffffffffffffffffffffffffffffffffffffffff1660008054906101000a900473ffffffffffffffffffffffffffffffffffffffff1673ffffffffffffffffffffffffffffffffffffffff16636352211e856040518263ffffffff1660e01b81526004016106df9190610a85565b602060405180830381865afa1580156106fc573d6000803e3d6000fd5b505050506040513d601f19601f820116820180604052508101906107209190610dea565b73ffffffffffffffffffffffffffffffffffffffff1614610776576040517f08c379a000000000000000000000000000000000000000000000000000000000815260040161076d90610e63565b60405180910390fd5b6002600084815260200190815260200160002060009054906101000a900460ff16156107d7576040517f08c379a00000000000000000000000000000000000000000000000000000000081526004016107ce90610ecf565b60405180910390fd5b6000600180549050905060016040518060a001604052808381526020018681526020013373ffffffffffffffffffffffffffffffffffffffff168152602001858152602001600015158152509080600181540180825580915050600190039060005260206000209060050201600090919091909150600082015181600001556020820151816001015560408201518160020160006101000a81548173ffffffffffffffffffffffffffffffffffffffff021916908373ffffffffffffffffffffffffffffffffffffffff1602179055506060820151816003015560808201518160040160006101000a81548160ff021916908315150217905550505060016002600086815260200190815260200160002060006101000a81548160ff0219169083151502179055507f079cec1c6d5c9d32a4959759d148ecb384ab7bef5d509b4459dc250a4279925481858560405161093293929190610eef565b60405180910390a18091505092915050565b600080fd5b6000819050919050565b61095c81610949565b811461096757600080fd5b50565b60008135905061097981610953565b92915050565b60006020828403121561099557610994610944565b5b60006109a38482850161096a565b91505092915050565b6109b581610949565b82525050565b600073ffffffffffffffffffffffffffffffffffffffff82169050919050565b60006109e6826109bb565b9050919050565b6109f6816109db565b82525050565b60008115159050919050565b610a11816109fc565b82525050565b600060a082019050610a2c60008301886109ac565b610a3960208301876109ac565b610a4660408301866109ed565b610a5360608301856109ac565b610a606080830184610a08565b9695505050505050565b6000602082019050610a7f6000830184610a08565b92915050565b6000602082019050610a9a60008301846109ac565b92915050565b60008060408385031215610ab757610ab6610944565b5b6000610ac58582860161096a565b9250506020610ad68582860161096a565b9150509250929050565b7f4e487b7100000000000000000000000000000000000000000000000000000000600052603260045260246000fd5b600082825260208201905092915050565b7f4954454d5f414c52454144595f534f4c44000000000000000000000000000000600082015250565b6000610b56601183610b0f565b9150610b6182610b20565b602082019050919050565b60006020820190508181036000830152610b8581610b49565b9050919050565b7f4954454d5f4e4f545f464f554e44000000000000000000000000000000000000600082015250565b6000610bc2600e83610b0f565b9150610bcd82610b8c565b602082019050919050565b60006020820190508181036000830152610bf181610bb5565b9050919050565b7f494e53554646494349454e545f4d415449430000000000000000000000000000600082015250565b6000610c2e601283610b0f565b9150610c3982610bf8565b602082019050919050565b60006020820190508181036000830152610c5d81610c21565b9050919050565b7f43414e4e4f545f4255595f4f574e5f4954454d00000000000000000000000000600082015250565b6000610c9a601383610b0f565b9150610ca582610c64565b602082019050919050565b60006020820190508181036000830152610cc981610c8d565b9050919050565b6000819050919050565b6000610cf5610cf0610ceb846109bb565b610cd0565b6109bb565b9050919050565b6000610d0782610cda565b9050919050565b6000610d1982610cfc565b9050919050565b610d2981610d0e565b82525050565b6000610d3a826109bb565b9050919050565b610d4a81610d2f565b82525050565b6000606082019050610d656000830186610d20565b610d726020830185610d41565b610d7f60408301846109ac565b949350505050565b6000606082019050610d9c60008301866109ac565b610da96020830185610d41565b610db660408301846109ac565b949350505050565b610dc781610d2f565b8114610dd257600080fd5b50565b600081519050610de481610dbe565b92915050565b600060208284031215610e0057610dff610944565b5b6000610e0e84828501610dd5565b91505092915050565b7f4e4f545f4f574e45520000000000000000000000000000000000000000000000600082015250565b6000610e4d600983610b0f565b9150610e5882610e17565b602082019050919050565b60006020820190508181036000830152610e7c81610e40565b9050919050565b7f4954454d5f414c52454144595f464f525f53414c450000000000000000000000600082015250565b6000610eb9601583610b0f565b9150610ec482610e83565b602082019050919050565b60006020820190508181036000830152610ee881610eac565b9050919050565b6000606082019050610f0460008301866109ac565b610f1160208301856109ac565b610f1e60408301846109ac565b94935050505056fea264697066735822122016c5677f9fa0e1bbaf4726a9daaddac91d1d83e96ff4aecb7b747a2e01fc0cf364736f6c634300080b0033",
  "immutableReferences": {},
  "source": "// SPDX-License-Identifier: MIT\r\npragma solidity ^0.8.7;\r\n\r\nimport \"./KordzToken.sol\";\r\n\r\ncontract KordzMarketplace {\r\n    KordzToken private token;\r\n\r\n    struct ItemForSale {\r\n        uint256 id;\r\n        uint256 tokenId;\r\n        address payable seller;\r\n        uint256 price;\r\n        bool isSold;\r\n    }\r\n\r\n    ItemForSale[] public itemsForSale;\r\n    mapping(uint256 => bool) public activeItems;\r\n\r\n    event ItemAddedForSale(uint256 id, uint256 tokenId, uint256 price);\r\n    event ItemSold(uint256 id, address buyer, uint256 price);\r\n\r\n    constructor(KordzToken _token) {\r\n        token = _token;\r\n    }\r\n\r\n    function putItemForSale(uint256 tokenId, uint256 price)\r\n        external\r\n        returns (uint256)\r\n    {\r\n        require(token.ownerOf(tokenId) == msg.sender, \"NOT_OWNER\");\r\n        require(!activeItems[tokenId], \"ITEM_ALREADY_FOR_SALE\");\r\n\r\n        uint256 newItemId = itemsForSale.length;\r\n        itemsForSale.push(\r\n            ItemForSale({\r\n                id: newItemId,\r\n                tokenId: tokenId,\r\n                seller: payable(msg.sender),\r\n                price: price,\r\n                isSold: false\r\n            })\r\n        );\r\n        activeItems[tokenId] = true;\r\n\r\n        emit ItemAddedForSale(newItemId, tokenId, price);\r\n        return newItemId;\r\n    }\r\n\r\n    function buyItem(uint256 id) external payable {\r\n        require(!itemsForSale[id].isSold, \"ITEM_ALREADY_SOLD\");\r\n        require(\r\n            id < itemsForSale.length && itemsForSale[id].id == id,\r\n            \"ITEM_NOT_FOUND\"\r\n        );\r\n        require(msg.value >= itemsForSale[id].price, \"INSUFFICIENT_MATIC\");\r\n        require(msg.sender != itemsForSale[id].seller, \"CANNOT_BUY_OWN_ITEM\");\r\n\r\n        itemsForSale[id].isSold = true;\r\n        activeItems[itemsForSale[id].tokenId] = false;\r\n        token.safeTransferFrom(\r\n            itemsForSale[id].seller,\r\n            msg.sender,\r\n            itemsForSale[id].tokenId\r\n        );\r\n        itemsForSale[id].seller.transfer(msg.value);\r\n\r\n        emit ItemSold(id, msg.sender, itemsForSale[id].price);\r\n    }\r\n\r\n    function totalItemsForSale() external view returns (uint256) {\r\n        return itemsForSale.length;\r\n    }\r\n}\r\n",
  "sourcePath": "/mnt/c/Users/CallistaChang/Documents/GitHub/metis.market/contracts/KordzMarketplace.sol",
  "compiler": {
    "name": "solc",
    "version": "0.8.11+commit.d7f03943.Emscripten.clang"
  },
  "schemaVersion": "3.4.4",
  "updatedAt": "2022-01-02T16:33:30.764Z",
  "networkType": "ethereum",
  "devdoc": {
    "kind": "dev",
    "methods": {},
    "version": 1
  },
  "userdoc": {
    "kind": "user",
    "methods": {},
    "version": 1
  }
}